:0104B40081C6
:0604AA00014800012101E0
:070003007521017FFF7E0F54
:10000A00EF4E60147DC87C00ED1D70011CED4C7034
:08001A00F7EF1F70EB1E80E8F8
:0100220022BB
:10032A00C2A27F677E00EF1F70011EEF4E70F7D2E8
:10033A00A27E007F04EF1F70011EEF4E70F77F014F
:07034A007E0012000A7F0192
:010351002289
:1003A200C2A20FBF0000D2A20FBF00000FBF000009
:1003B200A2A292007E007F08EF1F70011EEF4E7016
:0303C200F7A2009F
:0103C5002215
:10029200BF011AC2A20DBD00000DBD0000D2A27C9A
:1002A200007D07ED1D70011CED4C70F722EF7018F8
:1002B200C2A2FC7D07ED1D70011CED4C70F7D2A2AD
:0802C2000DBD00000DBD0000A0
:0102CA002211
:1003E400E4FD7C011203A2E433FFC43333335480AD
:0C03F400FEEDC3134EFD0CBC09EAAF0582
:0104000022D9
:0A03C600AB08AA09A90A1201C2FF40
:0203D000AE0776
:1003D200E4FBEE5401FF120292EEC313FE0BBB08C4
:0103E200F129
:0103E30022F7
:100352007F331203D0E4F50A1203E4E50A7C007B42
:10036200002437F9EC3400FAEF1201EF050AE50A2E
:07037200C3940840E37F0182
:010379002261
:10037A007F551203D0E4F50A7E007B007437250A04
:10038A00F9EE3400FA1201A9FF1203D0050AE50AB0
:07039A00C3940840E37F015A
:0103A1002239
:0804A2007FCC1203D07F012280
:0502CB0012032A7FCCA4
:1002D000750901EF24AB60172489601A24E0601EC1
:1002E00024FC601A24BD70131203528F09800F1270
:1002F000037A8F0980081204A28003E4F509AF098C
:0103000022DA
:100454001202CB7FB4120201BF01037F0022EF70AE
:06046400037F01227FFF6F
:01046A00226F
:100401007508017F441203D0120454EF600BD2A28D
:0B0411007F017E0012000AC2A2AF08AB
:01041C0022BD
:10041D007508017F481203D0120454EF600BD2A26D
:0B042D007F017E0012000AC2A2AF088F
:0104380022A1
:0B0496007FB41203D01203A2E433FF76
:0104A1002238
:10043900790A7A017FB81203D0AF0119EF60091266
:0A04490003A2E433FABA01F1AF0296
:010453002286
:020253008F0812
:10025500750901E508D394095004E5087005E4F52E
:100265000980277FBE1203D0E4F50AE50AC3950885
:1002750050181203E4E50A7C007B00243FF9EC34B6
:0C02850000FAEF1201EF050A80E1AF095A
:01029100224A
:060301008B088A09890A3D
:10030700750B017F4E1203D090000A1203C69000AE
:100317000B1203C6AB08AA09A90A90000C1203CC5A
:02032700AF0B1A
:0103290022B1
:100201007E01EF24B8601B24FA601E249A60372413
:10021100FC602C24FA601F247A7032120401AE07AC
:10022100802D12041DAE0780267B007A00793712DB
:100231000301AE0780197F09120253AE0780101225
:100241000439AE078009120496AE078002E4FEAFBE
:0102510006A6
:010252002289
:10046B00758920758DFD758BFDD28EC29FD29ED264
:06047B009CD2ACD2AF22BE
:1000260012046B7590AA1202CB7541127542347593
:10003600437F7F4E1202011202CB7F44120201124D
:1000460002CB7FBE1202017FFF7E0012000AE4FF90
:10005600EF7C007B00243FF9EC3400FA1201A9FE84
:1000660074232FF8A6060FBF09E68523997548095C
:1000760012000312032A7F331202D0E4FFEF7C0042
:100086007B002437F9EC3400FA1201A9FE74232F01
:10009600F8A6060FBF08E6852399754808120003DF
:1000A600120454EF60057599018003E4F599120076
:0400B6000602002915
:0304B10002000046
:100481009004B4E493B5070CC2AF7FFF7E00120065
:040491000A75E760A1
:010495002244
:0300230002014691
:10014600C0E0C083C082C0D075D000C000C004C06B
:1001560005C006C007309813859922AF2212048184
:10016600C2988522997548003099FD309922C29926
:10017600E52165486014E5486010AF210521742328
:100186002FF8E6F59920990880FB7521017548003E
:10019600D007D006D005D004D000D0D0D082D083EE
:0301A600D0E03274
:030000000200BA41
:0C00BA00787FE4F6D8FD75814802010152
:1001A900BB010689828A83E0225002E722BBFE0254
:0901B900E32289828A83E4932287
:1001C200BB010CE58229F582E5833AF583E02250F2
:1001D20006E92582F8E622BBFE06E92582F8E2223C
:0D01E200E58229F582E5833AF583E4932256
:1001EF00BB010689828A83F0225002F722BBFE01EF
:0201FF00F322E9
:1000C600020026E493A3F8E493A34003F68001F22A
:1000D60008DFF48029E493A3F85407240CC8C3333B
:1000E600C4540F4420C8834004F456800146F6DF0A
:1000F600E4800B01020408102040809004AAE47EEC
:10010600019360BCA3FF543F30E509541FFEE493FE
:10011600A360010ECF54C025E060A840B8E493A3C5
:10012600FAE493A3F8E493A3C8C582C8CAC583CAF0
:10013600F0A3C8C582C8CAC583CADFE9DEE780BEA8
:0104B000004B
:00000001FF
